{
  "_format": "hh-sol-artifact-1",
  "contractName": "GameFactory",
  "sourceName": "src/GameFactory.sol",
  "abi": [
    {
      "inputs": [
        {
          "internalType": "address",
          "name": "_playerRegistryAddress",
          "type": "address"
        }
      ],
      "stateMutability": "nonpayable",
      "type": "constructor"
    },
    {
      "anonymous": false,
      "inputs": [
        {
          "indexed": false,
          "internalType": "string",
          "name": "gameId",
          "type": "string"
        },
        {
          "indexed": false,
          "internalType": "address",
          "name": "gameAddress",
          "type": "address"
        },
        {
          "indexed": false,
          "internalType": "address",
          "name": "creator",
          "type": "address"
        }
      ],
      "name": "GameCreated",
      "type": "event"
    },
    {
      "anonymous": false,
      "inputs": [
        {
          "indexed": false,
          "internalType": "string",
          "name": "gameId",
          "type": "string"
        },
        {
          "indexed": false,
          "internalType": "bool",
          "name": "active",
          "type": "bool"
        }
      ],
      "name": "GameStatusUpdated",
      "type": "event"
    },
    {
      "inputs": [
        {
          "internalType": "string",
          "name": "_gameId",
          "type": "string"
        },
        {
          "internalType": "uint8",
          "name": "_orderDelay",
          "type": "uint8"
        },
        {
          "internalType": "uint8",
          "name": "_shippingDelay",
          "type": "uint8"
        },
        {
          "internalType": "uint8",
          "name": "_demandPattern",
          "type": "uint8"
        },
        {
          "internalType": "uint256",
          "name": "_initialInventory",
          "type": "uint256"
        }
      ],
      "name": "createGame",
      "outputs": [
        {
          "internalType": "address",
          "name": "",
          "type": "address"
        }
      ],
      "stateMutability": "nonpayable",
      "type": "function"
    },
    {
      "inputs": [
        {
          "internalType": "uint256",
          "name": "",
          "type": "uint256"
        }
      ],
      "name": "gameIds",
      "outputs": [
        {
          "internalType": "string",
          "name": "",
          "type": "string"
        }
      ],
      "stateMutability": "view",
      "type": "function"
    },
    {
      "inputs": [
        {
          "internalType": "string",
          "name": "",
          "type": "string"
        }
      ],
      "name": "games",
      "outputs": [
        {
          "internalType": "address",
          "name": "contractAddress",
          "type": "address"
        },
        {
          "internalType": "string",
          "name": "gameId",
          "type": "string"
        },
        {
          "internalType": "address",
          "name": "creator",
          "type": "address"
        },
        {
          "internalType": "uint256",
          "name": "createdAt",
          "type": "uint256"
        },
        {
          "internalType": "bool",
          "name": "active",
          "type": "bool"
        }
      ],
      "stateMutability": "view",
      "type": "function"
    },
    {
      "inputs": [
        {
          "internalType": "uint256",
          "name": "_start",
          "type": "uint256"
        },
        {
          "internalType": "uint256",
          "name": "_count",
          "type": "uint256"
        }
      ],
      "name": "getActiveGames",
      "outputs": [
        {
          "internalType": "string[]",
          "name": "",
          "type": "string[]"
        }
      ],
      "stateMutability": "view",
      "type": "function"
    },
    {
      "inputs": [
        {
          "internalType": "string",
          "name": "_gameId",
          "type": "string"
        }
      ],
      "name": "getGameAddress",
      "outputs": [
        {
          "internalType": "address",
          "name": "",
          "type": "address"
        }
      ],
      "stateMutability": "view",
      "type": "function"
    },
    {
      "inputs": [],
      "name": "getGameCount",
      "outputs": [
        {
          "internalType": "uint256",
          "name": "",
          "type": "uint256"
        }
      ],
      "stateMutability": "view",
      "type": "function"
    },
    {
      "inputs": [],
      "name": "playerRegistry",
      "outputs": [
        {
          "internalType": "contract PlayerRegistry",
          "name": "",
          "type": "address"
        }
      ],
      "stateMutability": "view",
      "type": "function"
    },
    {
      "inputs": [
        {
          "internalType": "string",
          "name": "_gameId",
          "type": "string"
        },
        {
          "internalType": "bool",
          "name": "_active",
          "type": "bool"
        }
      ],
      "name": "setGameStatus",
      "outputs": [],
      "stateMutability": "nonpayable",
      "type": "function"
    }
  ],
  "bytecode": "0x608060405234801561001057600080fd5b5060405161421f38038061421f83398101604081905261002f91610054565b600280546001600160a01b0319166001600160a01b0392909216919091179055610084565b60006020828403121561006657600080fd5b81516001600160a01b038116811461007d57600080fd5b9392505050565b61418c806100936000396000f3fe60806040523480156200001157600080fd5b5060043610620000935760003560e01c8063d82c13f01162000062578063d82c13f01462000121578063e3c99d081462000147578063e87c0ee6146200016d578063f278edd3146200017f57600080fd5b80632c7865f014620000985780634c74ef9c14620000cc5780636d20931a14620000e05780639bb6cbbe146200010a575b600080fd5b620000af620000a936600462000b13565b62000198565b6040516001600160a01b0390911681526020015b60405180910390f35b600254620000af906001600160a01b031681565b620000f7620000f136600462000b13565b620001ca565b604051620000c395949392919062000ba8565b620000af6200011b36600462000c02565b620002ad565b620001386200013236600462000c83565b62000503565b604051620000c3919062000c9d565b6200015e6200015836600462000cb9565b620005b8565b604051620000c3919062000cdc565b600154604051908152602001620000c3565b620001966200019036600462000d42565b62000884565b005b60008082604051620001ab919062000d9e565b908152604051908190036020019020546001600160a01b031692915050565b8051602081830181018051600082529282019190930120915280546001820180546001600160a01b039092169291620002039062000dbc565b80601f0160208091040260200160405190810160405280929190818152602001828054620002319062000dbc565b8015620002825780601f10620002565761010080835404028352916020019162000282565b820191906000526020600020905b8154815290600101906020018083116200026457829003601f168201915b505050506002830154600384015460049094015492936001600160a01b039091169290915060ff1685565b6000806001600160a01b0316600087604051620002cb919062000d9e565b908152604051908190036020019020546001600160a01b031614620003375760405162461bcd60e51b815260206004820152601660248201527f47616d6520494420616c7265616479206578697374730000000000000000000060448201526064015b60405180910390fd5b60008686868686600260009054906101000a90046001600160a01b031633604051620003639062000a5a565b62000375979695949392919062000df8565b604051809103906000f08015801562000392573d6000803e3d6000fd5b506040805160a0810182526001600160a01b0383168152602081018a9052338183015242606082015260016080820152905191925090600090620003d8908a9062000d9e565b908152604051602091819003820190208251815473ffffffffffffffffffffffffffffffffffffffff19166001600160a01b0390911617815590820151600182019062000426908262000ea8565b50604082015160028201805473ffffffffffffffffffffffffffffffffffffffff19166001600160a01b03909216919091179055606082015160038201556080909101516004909101805460ff19169115159190911790556001805480820182556000919091527fb10e2d527612073b26eecdfd717e6a320cf44b4afac2b0732d9fcbe2b7fa0cf601620004bb888262000ea8565b507f62fa440542130e3bbe670b72a05096e1a2839ccf09f3e7062fa862ffbbf8d121878233604051620004f19392919062000f75565b60405180910390a19695505050505050565b600181815481106200051457600080fd5b906000526020600020016000915090508054620005319062000dbc565b80601f01602080910402602001604051908101604052809291908181526020018280546200055f9062000dbc565b8015620005b05780601f106200058457610100808354040283529160200191620005b0565b820191906000526020600020905b8154815290600101906020018083116200059257829003601f168201915b505050505081565b60015460609083106200060e5760405162461bcd60e51b815260206004820152601960248201527f537461727420696e646578206f7574206f6620626f756e64730000000000000060448201526064016200032e565b60015482906200061f828662000fc0565b111562000639576001546200063690859062000fd6565b90505b6000845b62000649838762000fc0565b811015620006c35760006001828154811062000669576200066962000fec565b9060005260206000200160405162000682919062001002565b9081526040519081900360200190206004015460ff1615620006ae5781620006aa8162001080565b9250505b80620006ba8162001080565b9150506200063d565b5060008167ffffffffffffffff811115620006e257620006e262000a68565b6040519080825280602002602001820160405280156200071757816020015b6060815260200190600190039081620007015790505b5090506000865b6200072a858962000fc0565b81101562000876576000600182815481106200074a576200074a62000fec565b9060005260206000200160405162000763919062001002565b9081526040519081900360200190206004015460ff161562000861576001818154811062000795576200079562000fec565b906000526020600020018054620007ac9062000dbc565b80601f0160208091040260200160405190810160405280929190818152602001828054620007da9062000dbc565b80156200082b5780601f10620007ff576101008083540402835291602001916200082b565b820191906000526020600020905b8154815290600101906020018083116200080d57829003601f168201915b505050505083838151811062000845576200084562000fec565b602002602001018190525081806200085d9062001080565b9250505b806200086d8162001080565b9150506200071e565b509093505050505b92915050565b60006001600160a01b0316600083604051620008a1919062000d9e565b908152604051908190036020019020546001600160a01b031603620009095760405162461bcd60e51b815260206004820152601360248201527f47616d6520646f6573206e6f742065786973740000000000000000000000000060448201526064016200032e565b6000826040516200091b919062000d9e565b90815260405190819003602001902060020154336001600160a01b03909116148062000972575060008260405162000954919062000d9e565b90815260405190819003602001902054336001600160a01b03909116145b620009e65760405162461bcd60e51b815260206004820152602f60248201527f4f6e6c792063726561746f72206f722067616d6520636f6e747261637420636160448201527f6e2075706461746520737461747573000000000000000000000000000000000060648201526084016200032e565b80600083604051620009f9919062000d9e565b908152604051908190036020018120600401805492151560ff19909316929092179091557f0914c633069b6b47eaa0bffd8a4c0d04cafe4df59e79437b7c9cb3ad9bea61c99062000a4e90849084906200109c565b60405180910390a15050565b61309480620010c383390190565b634e487b7160e01b600052604160045260246000fd5b600082601f83011262000a9057600080fd5b813567ffffffffffffffff8082111562000aae5762000aae62000a68565b604051601f8301601f19908116603f0116810190828211818310171562000ad95762000ad962000a68565b8160405283815286602085880101111562000af357600080fd5b836020870160208301376000602085830101528094505050505092915050565b60006020828403121562000b2657600080fd5b813567ffffffffffffffff81111562000b3e57600080fd5b62000b4c8482850162000a7e565b949350505050565b60005b8381101562000b7157818101518382015260200162000b57565b50506000910152565b6000815180845262000b9481602086016020860162000b54565b601f01601f19169290920160200192915050565b60006001600160a01b03808816835260a0602084015262000bcd60a084018862000b7a565b95166040830152506060810192909252151560809091015292915050565b803560ff8116811462000bfd57600080fd5b919050565b600080600080600060a0868803121562000c1b57600080fd5b853567ffffffffffffffff81111562000c3357600080fd5b62000c418882890162000a7e565b95505062000c526020870162000beb565b935062000c626040870162000beb565b925062000c726060870162000beb565b949793965091946080013592915050565b60006020828403121562000c9657600080fd5b5035919050565b60208152600062000cb2602083018462000b7a565b9392505050565b6000806040838503121562000ccd57600080fd5b50508035926020909101359150565b6000602080830181845280855180835260408601915060408160051b870101925083870160005b8281101562000d3557603f1988860301845262000d2285835162000b7a565b9450928501929085019060010162000d03565b5092979650505050505050565b6000806040838503121562000d5657600080fd5b823567ffffffffffffffff81111562000d6e57600080fd5b62000d7c8582860162000a7e565b9250506020830135801515811462000d9357600080fd5b809150509250929050565b6000825162000db281846020870162000b54565b9190910192915050565b600181811c9082168062000dd157607f821691505b60208210810362000df257634e487b7160e01b600052602260045260246000fd5b50919050565b60e08152600062000e0d60e083018a62000b7a565b905060ff8816602083015260ff8716604083015260ff861660608301528460808301526001600160a01b0380851660a084015280841660c08401525098975050505050505050565b601f82111562000ea357600081815260208120601f850160051c8101602086101562000e7e5750805b601f850160051c820191505b8181101562000e9f5782815560010162000e8a565b5050505b505050565b815167ffffffffffffffff81111562000ec55762000ec562000a68565b62000edd8162000ed6845462000dbc565b8462000e55565b602080601f83116001811462000f15576000841562000efc5750858301515b600019600386901b1c1916600185901b17855562000e9f565b600085815260208120601f198616915b8281101562000f465788860151825594840194600190910190840162000f25565b508582101562000f655787850151600019600388901b60f8161c191681555b5050505050600190811b01905550565b60608152600062000f8a606083018662000b7a565b6001600160a01b0394851660208401529290931660409091015292915050565b634e487b7160e01b600052601160045260246000fd5b808201808211156200087e576200087e62000faa565b818103818111156200087e576200087e62000faa565b634e487b7160e01b600052603260045260246000fd5b6000808354620010128162000dbc565b600182811680156200102d5760018114620010435762001074565b60ff198416875282151583028701945062001074565b8760005260208060002060005b858110156200106b5781548a82015290840190820162001050565b50505082870194505b50929695505050505050565b60006001820162001095576200109562000faa565b5060010190565b604081526000620010b1604083018562000b7a565b90508215156020830152939250505056fe60806040523480156200001157600080fd5b506040516200309438038062003094833981016040819052620000349162000628565b6000620000428882620007f2565b50600180546001600160a01b038381166001600160a81b031990921691909117600160a01b60ff8a8116919091029190911761ffff60a81b1916600160a81b8983160260ff60b01b191617600160b01b918816919091021782556002858155600060038190556004805461ffff19169055600780546001600160a01b03191693871693909317909255600d8290556040805160c080820183528882526020808301868152838501878152606080860189815260808088018b815260a0808a018d81529d8d52600880895299517fad67d757c34507f157cacfa2e3153e9f260a2244f30428821be7be64587ac55f5595517fad67d757c34507f157cacfa2e3153e9f260a2244f30428821be7be64587ac5605593517fad67d757c34507f157cacfa2e3153e9f260a2244f30428821be7be64587ac5615590517fad67d757c34507f157cacfa2e3153e9f260a2244f30428821be7be64587ac5625591517fad67d757c34507f157cacfa2e3153e9f260a2244f30428821be7be64587ac5635598517fad67d757c34507f157cacfa2e3153e9f260a2244f30428821be7be64587ac564805460ff1916911515919091179055855193840186528b845291830187905293820186905295810185905294850184905290840183905291906004811115620002305762000230620008be565b8152602001908152602001600020600082015181600001556020820151816001015560408201518160020155606082015181600301556080820151816004015560a08201518160050160006101000a81548160ff0219169083151502179055509050506040518060c0016040528084815260200160008152602001600081526020016000815260200160008152602001600015158152506008600060036004811115620002e157620002e1620008be565b6004811115620002f557620002f5620008be565b8152602001908152602001600020600082015181600001556020820151816001015560408201518160020155606082015181600301556080820151816004015560a08201518160050160006101000a81548160ff0219169083151502179055509050506040518060c00160405280848152602001600081526020016000815260200160008152602001600081526020016000151581525060086000600480811115620003a557620003a5620008be565b6004811115620003b957620003b9620008be565b81526020808201929092526040908101600020835181559183015160018301558201516002820155606082015160038201556080820151600482015560a0909101516005909101805460ff19169115159190911790556200041962000426565b50505050505050620009d9565b600154601490600160b01b900460ff16600003620004755760005b818110156200047157600081815260096020526040902060049055806200046881620008ea565b91505062000441565b5050565b60018054600160b01b900460ff169003620004e05760005b8181101562000471576004811015620004b857600081815260096020526040902060049055620004cb565b6000818152600960205260409020600890555b80620004d781620008ea565b9150506200048d565b600154600160b01b900460ff16600203620005b0576000424460006040516020016200050f9392919062000906565b60405160208183030381529060405280519060200120905060005b82811015620005ab5760006005838360405160200162000554929190918252602082015260400190565b6040516020818303038152906040528051906020012060001c6200057991906200099a565b62000586906002620009bd565b6000838152600960205260409020555080620005a281620008ea565b9150506200052a565b505050565b60005b81811015620004715760008181526009602052604090206004905580620005da81620008ea565b915050620005b3565b634e487b7160e01b600052604160045260246000fd5b805160ff811681146200060b57600080fd5b919050565b80516001600160a01b03811681146200060b57600080fd5b600080600080600080600060e0888a0312156200064457600080fd5b87516001600160401b03808211156200065c57600080fd5b818a0191508a601f8301126200067157600080fd5b815181811115620006865762000686620005e3565b604051601f8201601f19908116603f01168101908382118183101715620006b157620006b1620005e3565b81604052828152602093508d84848701011115620006ce57600080fd5b600091505b82821015620006f25784820184015181830185015290830190620006d3565b6000848483010152809b505050506200070d818b01620005f9565b975050506200071f60408901620005f9565b94506200072f60608901620005f9565b9350608088015192506200074660a0890162000610565b91506200075660c0890162000610565b905092959891949750929550565b600181811c908216806200077957607f821691505b6020821081036200079a57634e487b7160e01b600052602260045260246000fd5b50919050565b601f821115620005ab57600081815260208120601f850160051c81016020861015620007c95750805b601f850160051c820191505b81811015620007ea57828155600101620007d5565b505050505050565b81516001600160401b038111156200080e576200080e620005e3565b62000826816200081f845462000764565b84620007a0565b602080601f8311600181146200085e5760008415620008455750858301515b600019600386901b1c1916600185901b178555620007ea565b600085815260208120601f198616915b828110156200088f578886015182559484019460019091019084016200086e565b5085821015620008ae5787850151600019600388901b60f8161c191681555b5050505050600190811b01905550565b634e487b7160e01b600052602160045260246000fd5b634e487b7160e01b600052601160045260246000fd5b600060018201620008ff57620008ff620008d4565b5060010190565b838152600060208481840152604060008554620009238162000764565b600182811680156200093e576001811462000958576200098a565b60ff1984168987015282151583028901860194506200098a565b896000528660002060005b84811015620009805781548b820189015290830190880162000963565b505085838a010194505b50929a9950505050505050505050565b600082620009b857634e487b7160e01b600052601260045260246000fd5b500690565b80820180821115620009d357620009d3620008d4565b92915050565b6126ab80620009e96000396000f3fe608060405234801561001057600080fd5b50600436106101da5760003560e01c806378e9792511610104578063ccdcef1b116100a2578063e5e0e01611610071578063e5e0e016146104c1578063ec7dd7bb146104ca578063f4abb4ce146104ef578063f7aa9c021461050357600080fd5b8063ccdcef1b14610489578063d65ab5f214610491578063d7c81b5514610499578063e2526a2d146104ae57600080fd5b80638564b2eb116100de5780638564b2eb146103ee578063910fc7ef146103f6578063a6d3571d14610427578063b3bd2ed01461046257600080fd5b806378e97925146103a85780637d998ff1146103b157806382c54377146103c857600080fd5b80632f6fe3961161017c5780635aa04e951161014b5780635aa04e951461034f5780635e123ce4146103805780636cbc2ded1461038d5780636ee2af791461039557600080fd5b80632f6fe396146102fe5780633197cbb6146103205780633937fcd2146103295780634c74ef9c1461033c57600080fd5b80630748ebe2116101b85780630748ebe21461029b5780630bb67da2146102bb5780631d5023ce146102e15780632ab667ce146102f657600080fd5b806302d05d3f146101df578063058707531461020f57806306575c8914610284575b600080fd5b6001546101f2906001600160a01b031681565b6040516001600160a01b0390911681526020015b60405180910390f35b61025561021d36600461218f565b600860205260009081526040902080546001820154600283015460038401546004850154600590950154939492939192909160ff1686565b6040805196875260208701959095529385019290925260608401526080830152151560a082015260c001610206565b61028d60035481565b604051908152602001610206565b6102ae6102a93660046121aa565b610523565b60405161020691906121c3565b6102ce6102c9366004612207565b6105e2565b6040516102069796959493929190612263565b6102f46102ef3660046121aa565b610645565b005b61028d600281565b60045461031090610100900460ff1681565b6040519015158152602001610206565b61028d60065481565b6102ae61033736600461218f565b610893565b6007546101f2906001600160a01b031681565b61028d61035d3660046122af565b600c60209081526000938452604080852082529284528284209052825290205481565b6004546103109060ff1681565b6102f461098c565b61028d6103a33660046122e4565b610ae6565b61028d60055481565b60035460009081526009602052604090205461028d565b6001546103dc90600160a01b900460ff1681565b60405160ff9091168152602001610206565b61028d600181565b61028d6104043660046122af565b600b60209081526000938452604080852082529284528284209052825290205481565b61043a61043536600461218f565b610fa9565b604080519586526020860194909452928401919091526060830152608082015260a001610206565b6001546103dc90760100000000000000000000000000000000000000000000900460ff1681565b6102f4611012565b6102f4611125565b6104a16113a4565b6040516102069190612310565b6102ae6104bc36600461218f565b611432565b61028d60025481565b6104dd6104d83660046121aa565b611524565b6040516102069695949392919061235e565b6001546103dc90600160a81b900460ff1681565b61028d6105113660046121aa565b60096020526000908152604090205481565b6000818152600a6020526040812080546060929067ffffffffffffffff81111561054f5761054f6123a3565b604051908082528060200260200182016040528015610578578160200160208202803683370190505b50905060005b82548110156105da57828181548110610599576105996123b9565b9060005260206000209060060201600001548282815181106105bd576105bd6123b9565b6020908102919091010152806105d2816123e5565b91505061057e565b509392505050565b600a60205281600052604060002081815481106105fe57600080fd5b600091825260209091206006909102018054600182015460028301546003840154600485015460059095015493965060ff8084169650610100909304831694919390921687565b60045460ff16801561065f5750600454610100900460ff16155b6106a25760405162461bcd60e51b815260206004820152600f60248201526e47616d65206e6f742061637469766560881b60448201526064015b60405180910390fd5b60035481146106f35760405162461bcd60e51b815260206004820152601d60248201527f43616e206f6e6c792070726f636573732063757272656e74207765656b0000006044820152606401610699565b6001546001600160a01b031633146107735760405162461bcd60e51b815260206004820152602860248201527f4f6e6c792063726561746f722063616e2070726f6365737320637573746f6d6560448201527f72206f72646572730000000000000000000000000000000000000000000000006064820152608401610699565b60008181526009602090815260408220546001835260089091527fad67d757c34507f157cacfa2e3153e9f260a2244f30428821be7be64587ac5605490917fad67d757c34507f157cacfa2e3153e9f260a2244f30428821be7be64587ac55f916107de9084906123fe565b905060008183600001541061081557819050818360000160008282546108049190612411565b90915550506000600184015561082c565b5081546108228183612411565b6001840155600083555b8383600201600082825461084091906123fe565b909155505082546001848101546040517fa39529cbe3f9c34e58ec3e565e64c8c393c5d70e903efe65d7e6b62a2cb0af53936108849360009390928b929190612502565b60405180910390a15050505050565b600154606090600090600160a81b900460ff1667ffffffffffffffff8111156108be576108be6123a3565b6040519080825280602002602001820160405280156108e7578160200160208202803683370190505b50905060005b600154600160a81b900460ff16811015610985576003546000908152600b602052604081209085600481111561092557610925612229565b600481111561093657610936612229565b8152602001908152602001600020600082815260200190815260200160002054828281518110610968576109686123b9565b60209081029190910101528061097d816123e5565b9150506108ed565b5092915050565b60045460ff166109de5760405162461bcd60e51b815260206004820152601060248201527f47616d65206e6f742073746172746564000000000000000000000000000000006044820152606401610699565b600454610100900460ff1615610a365760405162461bcd60e51b815260206004820152601260248201527f47616d6520616c726561647920656e64656400000000000000000000000000006044820152606401610699565b6001546001600160a01b03163314610a905760405162461bcd60e51b815260206004820152601960248201527f4f6e6c792063726561746f722063616e20656e642067616d65000000000000006044820152606401610699565b6004805461ff0019166101001790554260068190556003546040517f62365aa0d76bc3687bab347279c0493a87917c8b60b51ad6e1e48c1e1ff4ba6e92610adc92600092909190612540565b60405180910390a1565b60045460009060ff168015610b035750600454610100900460ff16155b610b415760405162461bcd60e51b815260206004820152600f60248201526e47616d65206e6f742061637469766560881b6044820152606401610699565b60008211610b915760405162461bcd60e51b815260206004820152601960248201527f5175616e74697479206d75737420626520706f736974697665000000000000006044820152606401610699565b610b9b8484611659565b610be75760405162461bcd60e51b815260206004820152601260248201527f496e76616c6964206f7264657220666c6f7700000000000000000000000000006044820152606401610699565b6007546040517fbe377c6b0000000000000000000000000000000000000000000000000000000081526000916001600160a01b03169063be377c6b90610c339084908990600401612565565b602060405180830381865afa158015610c50573d6000803e3d6000fd5b505050506040513d601f19601f82011682018060405250810190610c749190612587565b9050336001600160a01b0382161480610c9757506001546001600160a01b031633145b610d095760405162461bcd60e51b815260206004820152602260248201527f4e6f7420617574686f72697a656420746f20706c6163652074686973206f726460448201527f65720000000000000000000000000000000000000000000000000000000000006064820152608401610699565b600d8054906000610d19836123e5565b919050555060006040518060e00160405280600d548152602001876004811115610d4557610d45612229565b8152602001866004811115610d5c57610d5c612229565b81526020018581526020016003548152602001600160149054906101000a900460ff1660ff16600354610d8f91906123fe565b8152602001600090526003546000908152600a60209081526040822080546001818101835591845292829020845160069094020192835590830151828201805494955085949192909160ff191690836004811115610def57610def612229565b0217905550604082015160018201805461ff001916610100836004811115610e1957610e19612229565b0217905550606082015181600201556080820151816003015560a0820151816004015560c08201518160050160006101000a81548160ff02191690836003811115610e6657610e66612229565b02179055505060015460009150600160a01b900460ff16610e88576000610e96565b600154600160a01b900460ff165b60ff16905084600c600060035481526020019081526020016000206000886004811115610ec557610ec5612229565b6004811115610ed657610ed6612229565b815260200190815260200160002060008381526020019081526020016000206000828254610f0491906123fe565b9091555085905060086000896004811115610f2157610f21612229565b6004811115610f3257610f32612229565b81526020019081526020016000206003016000828254610f5291906123fe565b9091555050600d546040517f972e432d08a400a25ec6f2abe5588dc56d8ceb6ec5f09f451bac1be27bd7b09b90610f91906000908b908b908b906125b0565b60405180910390a2600d5493505050505b9392505050565b60008060008060008060086000886004811115610fc857610fc8612229565b6004811115610fd957610fd9612229565b815260208101919091526040016000208054600182015460028301546003840154600490940154929b919a509850919650945092505050565b60045460ff16801561102c5750600454610100900460ff16155b61106a5760405162461bcd60e51b815260206004820152600f60248201526e47616d65206e6f742061637469766560881b6044820152606401610699565b6001546001600160a01b031633146110c45760405162461bcd60e51b815260206004820152601d60248201527f4f6e6c792063726561746f722063616e20616476616e6365207765656b0000006044820152606401610699565b6110cc611722565b6110d461174c565b6110dc611772565b600380549060006110ec836123e5565b91905055507f8214f1988a90dcafd4ff200b4b5ad873810f6115472d95f80c4e866f33bb44396000600354604051610adc9291906125ee565b60045460ff16156111785760405162461bcd60e51b815260206004820152601460248201527f47616d6520616c726561647920737461727465640000000000000000000000006044820152606401610699565b6007546040517f06d39a3b0000000000000000000000000000000000000000000000000000000081526001600160a01b03909116906306d39a3b906111c290600090600401612610565b602060405180830381865afa1580156111df573d6000803e3d6000fd5b505050506040513d601f19601f820116820180604052508101906112039190612623565b61124f5760405162461bcd60e51b815260206004820152601660248201527f4e6f7420616c6c20726f6c65732061737369676e6564000000000000000000006044820152606401610699565b6001546001600160a01b031633146112a95760405162461bcd60e51b815260206004820152601b60248201527f4f6e6c792063726561746f722063616e2073746172742067616d6500000000006044820152606401610699565b60048054600160ff199182168117835542600581905560086020527fad67d757c34507f157cacfa2e3153e9f260a2244f30428821be7be64587ac56480548416831790557f6add646517a5b0f6793cd5891b7937d28a5b2981a5d88ebc7cd776088fea904680548416831790557f625b35f5e76f098dd7c3a05b10e2e5e78a4a01228d60c3b143426cdf36d2645a805484168317905560009384527f9321edea6e3be4df59a344b401fab4f888b556fda1f954244cff9204bad624bd80549093169091179091556003546040517f420c0b3991b6de993da00acefc7fb12bef31604d94cab8bf2a6e104e273cbf1f93610adc93909291612540565b600080546113b190612424565b80601f01602080910402602001604051908101604052809291908181526020018280546113dd90612424565b801561142a5780601f106113ff5761010080835404028352916020019161142a565b820191906000526020600020905b81548152906001019060200180831161140d57829003601f168201915b505050505081565b600154606090600090600160a01b900460ff1667ffffffffffffffff81111561145d5761145d6123a3565b604051908082528060200260200182016040528015611486578160200160208202803683370190505b50905060005b600154600160a01b900460ff16811015610985576003546000908152600c60205260408120908560048111156114c4576114c4612229565b60048111156114d5576114d5612229565b8152602001908152602001600020600082815260200190815260200160002054828281518110611507576115076123b9565b60209081029190910101528061151c816123e5565b91505061148c565b60008060008060008060005b6003548111611607576000818152600a60205260408120905b81548110156115f25789828281548110611565576115656123b9565b906000526020600020906006020160000154036115e0576000828281548110611590576115906123b9565b60009182526020909120600690910201600181015460028201546003830154600484015460059094015460ff8085169f5061010090940484169d50919b5099509197501694506116509350505050565b806115ea816123e5565b915050611549565b505080806115ff906123e5565b915050611530565b5060405162461bcd60e51b815260206004820152600f60248201527f4f72646572206e6f7420666f756e6400000000000000000000000000000000006044820152606401610699565b91939550919395565b6000600183600481111561166f5761166f612229565b14801561168d5750600282600481111561168b5761168b612229565b145b1561169a5750600161171c565b60028360048111156116ae576116ae612229565b1480156116cc575060038260048111156116ca576116ca612229565b145b156116d95750600161171c565b60038360048111156116ed576116ed612229565b14801561170b5750600482600481111561170957611709612229565b145b156117185750600161171c565b5060005b92915050565b61172c600161179a565b611736600261179a565b611740600361179a565b61174a600461179a565b565b611754611ae3565b61175e6002611ce1565b6117686003611ce1565b61174a6004611ce1565b61177c6001611f9e565b6117866002611f9e565b6117906003611f9e565b61174a6004611f9e565b6000600860008360048111156117b2576117b2612229565b60048111156117c3576117c3612229565b815260200190815260200160002090506000600b6000600354815260200190815260200160002060008460048111156117fe576117fe612229565b600481111561180f5761180f612229565b8152602001908152602001600020600080815260200190815260200160002054905060008111156118f8578082600001600082825461184e91906123fe565b90915550506001820154156118b25760018201548254106118925781600101548260000160008282546118819190612411565b9091555050600060018301556118b2565b81546001830180546000906118a8908490612411565b9091555050600082555b600354825460018401546040517fa39529cbe3f9c34e58ec3e565e64c8c393c5d70e903efe65d7e6b62a2cb0af53936118ef936000938993612502565b60405180910390a15b60018054600160a81b900460ff161115611a765760005b600180546119279190600160a81b900460ff16612645565b60ff168110156119fc576003546000908152600b602052604081209085600481111561195557611955612229565b600481111561196657611966612229565b8152602001908152602001600020600082600161198391906123fe565b815260200190815260200160002054600b6000600354815260200190815260200160002060008660048111156119bb576119bb612229565b60048111156119cc576119cc612229565b815260208082019290925260409081016000908120858252909252902055806119f4816123e5565b91505061190f565b506003546000908152600b6020526040812081856004811115611a2157611a21612229565b6004811115611a3257611a32612229565b8152602001908152602001600020600060018060159054906101000a900460ff16611a5d9190612645565b60ff168152602081019190915260400160002055505050565b60018054600160a81b900460ff169003611ade576003546000908152600b6020526040812081856004811115611aae57611aae612229565b6004811115611abf57611abf612229565b8152602080820192909252604090810160009081208180529092529020555b505050565b6003546000908152600c602090815260408083206004845282528083208380529091528120547f9321edea6e3be4df59a344b401fab4f888b556fda1f954244cff9204bad624b9547f9321edea6e3be4df59a344b401fab4f888b556fda1f954244cff9204bad624b89290611b5890836123fe565b90508015611bd15781836002016000828254611b7491906123fe565b90915550611b85905060048261206b565b60006001840181905560035484546040517fa39529cbe3f9c34e58ec3e565e64c8c393c5d70e903efe65d7e6b62a2cb0af5393611bc89390926004928490612502565b60405180910390a15b600154600160a01b900460ff1615611cc85760005b60018054611bfe9190600160a01b900460ff16612645565b60ff16811015611c76576003546000908152600c6020908152604080832060048452909152812090611c318360016123fe565b815260208082019290925260409081016000908120546003548252600c8452828220600483528452828220858352909352205580611c6e816123e5565b915050611be6565b506003546000908152600c602052604081208160045b6004811115611c9d57611c9d612229565b8152602001908152602001600020600060018060149054906101000a900460ff16611a5d9190612645565b6003546000908152600c60205260408120816004611aae565b600060086000836004811115611cf957611cf9612229565b6004811115611d0a57611d0a612229565b815260200190815260200160002090506000600c600060035481526020019081526020016000206000846004811115611d4557611d45612229565b6004811115611d5657611d56612229565b815260200190815260200160002060008081526020019081526020016000205490506000811115611e535780826002016000828254611d9591906123fe565b90915550506001820154600090611dac90836123fe565b905080836000015410611de857611dc3848261206b565b80836000016000828254611dd79190612411565b909155505060006001840155611e0c565b611df684846000015461206b565b8254611e029082612411565b6001840155600083555b600354835460018501546040517fa39529cbe3f9c34e58ec3e565e64c8c393c5d70e903efe65d7e6b62a2cb0af5393611e49936000938a93612502565b60405180910390a1505b600154600160a01b900460ff1615611f7a5760005b60018054611e809190600160a01b900460ff16612645565b60ff16811015611f55576003546000908152600c6020526040812090856004811115611eae57611eae612229565b6004811115611ebf57611ebf612229565b81526020019081526020016000206000826001611edc91906123fe565b815260200190815260200160002054600c600060035481526020019081526020016000206000866004811115611f1457611f14612229565b6004811115611f2557611f25612229565b81526020808201929092526040908101600090812085825290925290205580611f4d816123e5565b915050611e68565b506003546000908152600c6020526040812081856004811115611c8c57611c8c612229565b6003546000908152600c6020526040812081856004811115611aae57611aae612229565b600060086000836004811115611fb657611fb6612229565b6004811115611fc757611fc7612229565b81526020019081526020016000209050600060018260000154611fea919061265e565b9050600060028360010154611fff919061265e565b905061200b81836123fe565b83600401600082825461201e91906123fe565b90915550506003546040517fc1c274d55fe56a2308fa4b3dc0693f3d770db6f2a0a06ddde93105bf2152fa1a9161205d91600091889187908790612502565b60405180910390a150505050565b6000600483600481111561208157612081612229565b0361208e575060036120cc565b60038360048111156120a2576120a2612229565b036120af575060026120cc565b60028360048111156120c3576120c3612229565b03611ade575060015b60018054600091600160a81b90910460ff16116120ea576000612102565b600180546121029190600160a81b900460ff16612645565b60ff16905082600b60006003548152602001908152602001600020600084600481111561213157612131612229565b600481111561214257612142612229565b81526020019081526020016000206000838152602001908152602001600020600082825461217091906123fe565b909155505050505050565b80356005811061218a57600080fd5b919050565b6000602082840312156121a157600080fd5b610fa28261217b565b6000602082840312156121bc57600080fd5b5035919050565b6020808252825182820181905260009190848201906040850190845b818110156121fb578351835292840192918401916001016121df565b50909695505050505050565b6000806040838503121561221a57600080fd5b50508035926020909101359150565b634e487b7160e01b600052602160045260246000fd5b6005811061224f5761224f612229565b9052565b6004811061224f5761224f612229565b87815260e08101612277602083018961223f565b612284604083018861223f565b8560608301528460808301528360a08301526122a360c0830184612253565b98975050505050505050565b6000806000606084860312156122c457600080fd5b833592506122d46020850161217b565b9150604084013590509250925092565b6000806000606084860312156122f957600080fd5b6123028461217b565b92506122d46020850161217b565b600060208083528351808285015260005b8181101561233d57858101830151858201604001528201612321565b506000604082860101526040601f19601f8301168501019250505092915050565b60c0810161236c828961223f565b612379602083018861223f565b85604083015284606083015283608083015261239860a0830184612253565b979650505050505050565b634e487b7160e01b600052604160045260246000fd5b634e487b7160e01b600052603260045260246000fd5b634e487b7160e01b600052601160045260246000fd5b6000600182016123f7576123f76123cf565b5060010190565b8082018082111561171c5761171c6123cf565b8181038181111561171c5761171c6123cf565b600181811c9082168061243857607f821691505b60208210810361245857634e487b7160e01b600052602260045260246000fd5b50919050565b8054600090600181811c908083168061247857607f831692505b6020808410820361249957634e487b7160e01b600052602260045260246000fd5b838852602088018280156124b457600181146124ca576124f5565b60ff198716825285151560051b820197506124f5565b60008981526020902060005b878110156124ef578154848201529086019084016124d6565b83019850505b5050505050505092915050565b60a08152600061251560a083018861245e565b9050612524602083018761223f565b8460408301528360608301528260808301529695505050505050565b606081526000612553606083018661245e565b60208301949094525060400152919050565b604081526000612578604083018561245e565b9050610fa2602083018461223f565b60006020828403121561259957600080fd5b81516001600160a01b0381168114610fa257600080fd5b6080815260006125c3608083018761245e565b90506125d2602083018661223f565b6125df604083018561223f565b82606083015295945050505050565b604081526000612601604083018561245e565b90508260208301529392505050565b602081526000610fa2602083018461245e565b60006020828403121561263557600080fd5b81518015158114610fa257600080fd5b60ff828116828216039081111561171c5761171c6123cf565b808202811582820484141761171c5761171c6123cf56fea2646970667358221220852ce95b9b88db22cb58e60db4a7754ca441b8dbd61d202d878bedd7b0801c7f64736f6c63430008110033a2646970667358221220f40f92f075eef177e875c65a8024a214c06363d232d58163b62ac1ef307d2adb64736f6c63430008110033",
  "linkReferences": {},
  "deployedLinkReferences": {}
}