{
  "_format": "hh-sol-artifact-1",
  "contractName": "PlayerRegistry",
  "sourceName": "src/PlayerRegistry.sol",
  "abi": [
    {
      "anonymous": false,
      "inputs": [
        {
          "indexed": false,
          "internalType": "address",
          "name": "playerAddress",
          "type": "address"
        },
        {
          "indexed": false,
          "internalType": "string",
          "name": "username",
          "type": "string"
        }
      ],
      "name": "PlayerRegistered",
      "type": "event"
    },
    {
      "anonymous": false,
      "inputs": [
        {
          "indexed": false,
          "internalType": "string",
          "name": "gameId",
          "type": "string"
        },
        {
          "indexed": false,
          "internalType": "address",
          "name": "playerAddress",
          "type": "address"
        },
        {
          "indexed": false,
          "internalType": "enum PlayerRegistry.Role",
          "name": "role",
          "type": "uint8"
        }
      ],
      "name": "PlayerRoleAssigned",
      "type": "event"
    },
    {
      "anonymous": false,
      "inputs": [
        {
          "indexed": false,
          "internalType": "string",
          "name": "gameId",
          "type": "string"
        },
        {
          "indexed": false,
          "internalType": "address",
          "name": "playerAddress",
          "type": "address"
        },
        {
          "indexed": false,
          "internalType": "enum PlayerRegistry.Role",
          "name": "role",
          "type": "uint8"
        }
      ],
      "name": "PlayerRoleRevoked",
      "type": "event"
    },
    {
      "inputs": [
        {
          "internalType": "string",
          "name": "_gameId",
          "type": "string"
        }
      ],
      "name": "allRolesAssigned",
      "outputs": [
        {
          "internalType": "bool",
          "name": "",
          "type": "bool"
        }
      ],
      "stateMutability": "view",
      "type": "function"
    },
    {
      "inputs": [
        {
          "internalType": "string",
          "name": "_gameId",
          "type": "string"
        },
        {
          "internalType": "address",
          "name": "_player",
          "type": "address"
        },
        {
          "internalType": "enum PlayerRegistry.Role",
          "name": "_role",
          "type": "uint8"
        }
      ],
      "name": "assignRole",
      "outputs": [],
      "stateMutability": "nonpayable",
      "type": "function"
    },
    {
      "inputs": [
        {
          "internalType": "string",
          "name": "",
          "type": "string"
        },
        {
          "internalType": "address",
          "name": "",
          "type": "address"
        }
      ],
      "name": "gamePlayers",
      "outputs": [
        {
          "internalType": "address",
          "name": "playerAddress",
          "type": "address"
        },
        {
          "internalType": "enum PlayerRegistry.Role",
          "name": "role",
          "type": "uint8"
        },
        {
          "internalType": "uint256",
          "name": "joinedAt",
          "type": "uint256"
        },
        {
          "internalType": "bool",
          "name": "active",
          "type": "bool"
        }
      ],
      "stateMutability": "view",
      "type": "function"
    },
    {
      "inputs": [
        {
          "internalType": "string",
          "name": "",
          "type": "string"
        },
        {
          "internalType": "enum PlayerRegistry.Role",
          "name": "",
          "type": "uint8"
        }
      ],
      "name": "gameRoles",
      "outputs": [
        {
          "internalType": "address",
          "name": "",
          "type": "address"
        }
      ],
      "stateMutability": "view",
      "type": "function"
    },
    {
      "inputs": [
        {
          "internalType": "string",
          "name": "_gameId",
          "type": "string"
        },
        {
          "internalType": "enum PlayerRegistry.Role",
          "name": "_role",
          "type": "uint8"
        }
      ],
      "name": "getPlayerByRole",
      "outputs": [
        {
          "internalType": "address",
          "name": "",
          "type": "address"
        }
      ],
      "stateMutability": "view",
      "type": "function"
    },
    {
      "inputs": [
        {
          "internalType": "address",
          "name": "_player",
          "type": "address"
        }
      ],
      "name": "getPlayerDetails",
      "outputs": [
        {
          "internalType": "string",
          "name": "username",
          "type": "string"
        },
        {
          "internalType": "uint256",
          "name": "gamesPlayed",
          "type": "uint256"
        },
        {
          "internalType": "bool",
          "name": "registered",
          "type": "bool"
        }
      ],
      "stateMutability": "view",
      "type": "function"
    },
    {
      "inputs": [
        {
          "internalType": "string",
          "name": "_gameId",
          "type": "string"
        },
        {
          "internalType": "address",
          "name": "_player",
          "type": "address"
        }
      ],
      "name": "getPlayerRole",
      "outputs": [
        {
          "internalType": "enum PlayerRegistry.Role",
          "name": "",
          "type": "uint8"
        }
      ],
      "stateMutability": "view",
      "type": "function"
    },
    {
      "inputs": [
        {
          "internalType": "address",
          "name": "",
          "type": "address"
        }
      ],
      "name": "players",
      "outputs": [
        {
          "internalType": "address",
          "name": "playerAddress",
          "type": "address"
        },
        {
          "internalType": "string",
          "name": "username",
          "type": "string"
        },
        {
          "internalType": "uint256",
          "name": "gamesPlayed",
          "type": "uint256"
        },
        {
          "internalType": "bool",
          "name": "registered",
          "type": "bool"
        }
      ],
      "stateMutability": "view",
      "type": "function"
    },
    {
      "inputs": [
        {
          "internalType": "string",
          "name": "_username",
          "type": "string"
        }
      ],
      "name": "registerPlayer",
      "outputs": [],
      "stateMutability": "nonpayable",
      "type": "function"
    },
    {
      "inputs": [
        {
          "internalType": "string",
          "name": "_gameId",
          "type": "string"
        },
        {
          "internalType": "address",
          "name": "_player",
          "type": "address"
        }
      ],
      "name": "revokeRole",
      "outputs": [],
      "stateMutability": "nonpayable",
      "type": "function"
    }
  ],
  "bytecode": "0x608060405234801561001057600080fd5b506112b6806100206000396000f3fe608060405234801561001057600080fd5b50600436106100be5760003560e01c8063b3446f8511610076578063c8dd6ce71161005b578063c8dd6ce7146101b5578063d54382db146101d7578063e2eb41ff1461024857600080fd5b8063b3446f851461018f578063be377c6b146101a257600080fd5b8063327be6c6116100a7578063327be6c6146101475780633b0238d21461015c578063731f21a01461017c57600080fd5b806306d39a3b146100c35780632a87aff0146100eb575b600080fd5b6100d66100d1366004610df8565b61026b565b60405190151581526020015b60405180910390f35b61012f6100f9366004610e49565b8151602081840181018051600282529282019482019490942091909352909152600090815260409020546001600160a01b031681565b6040516001600160a01b0390911681526020016100e2565b61015a610155366004610eae565b610396565b005b61016f61016a366004610f0c565b61079f565b6040516100e29190610f89565b61015a61018a366004610f0c565b6107e8565b61015a61019d366004610df8565b610a2e565b61012f6101b0366004610e49565b610b5f565b6101c86101c3366004610f97565b610bc5565b6040516100e293929190611009565b6102386101e5366004610f0c565b8151602081840181018051600180835293830195830195909520949052929092526000908152604090208054918101546002909101546001600160a01b03831692600160a01b900460ff90811692911684565b6040516100e29493929190611033565b61025b610256366004610f97565b610c96565b6040516100e29493929190611067565b6000806001600160a01b031660028360405161028791906110a1565b90815260408051602092819003830190206001600090815292529020546001600160a01b0316148015906102fa575060006001600160a01b03166002836040516102d191906110a1565b90815260408051602092819003830190206002600090815292529020546001600160a01b031614155b8015610345575060006001600160a01b031660028360405161031c91906110a1565b90815260408051602092819003830190206003600090815292529020546001600160a01b031614155b8015610390575060006001600160a01b031660028360405161036791906110a1565b90815260408051602092819003830190206004600090815292529020546001600160a01b031614155b92915050565b6001600160a01b03821660009081526020819052604090206003015460ff166104065760405162461bcd60e51b815260206004820152601560248201527f506c61796572206e6f742072656769737465726564000000000000000000000060448201526064015b60405180910390fd5b600081600481111561041a5761041a610f51565b036104675760405162461bcd60e51b815260206004820152600c60248201527f496e76616c696420726f6c65000000000000000000000000000000000000000060448201526064016103fd565b60006001600160a01b031660028460405161048291906110a1565b908152602001604051809103902060008360048111156104a4576104a4610f51565b60048111156104b5576104b5610f51565b81526020810191909152604001600020546001600160a01b03161461051c5760405162461bcd60e51b815260206004820152601560248201527f526f6c6520616c72656164792061737369676e6564000000000000000000000060448201526064016103fd565b600060018460405161052e91906110a1565b90815260408051602092819003830190206001600160a01b03861660009081529252902054600160a01b900460ff16600481111561056e5761056e610f51565b146105bb5760405162461bcd60e51b815260206004820152601960248201527f506c6179657220616c726561647920686173206120726f6c650000000000000060448201526064016103fd565b6040518060800160405280836001600160a01b031681526020018260048111156105e7576105e7610f51565b81524260208201526001604091820181905290516106069086906110a1565b908152604080519182900360209081019092206001600160a01b03808716600090815291845291902083518154921673ffffffffffffffffffffffffffffffffffffffff19831681178255928401519092909183917fffffffffffffffffffffff00000000000000000000000000000000000000000090911617600160a01b83600481111561069757610697610f51565b021790555060408281015160018301556060909201516002918201805460ff191691151591909117905590518391906106d19086906110a1565b908152602001604051809103902060008360048111156106f3576106f3610f51565b600481111561070457610704610f51565b815260208082019290925260409081016000908120805473ffffffffffffffffffffffffffffffffffffffff19166001600160a01b03958616179055928516835290829052812060020180549161075a836110bd565b91905055507fdb8318b56f5489dc5be4514518e0e5ad6b293e996990ac55177f3fda9e97c241838383604051610792939291906110e4565b60405180910390a1505050565b60006001836040516107b191906110a1565b90815260408051602092819003830190206001600160a01b03851660009081529252902054600160a01b900460ff16905092915050565b60006001836040516107fa91906110a1565b90815260408051602092819003830190206001600160a01b03851660009081529252902054600160a01b900460ff16600481111561083a5761083a610f51565b036108875760405162461bcd60e51b815260206004820152601260248201527f506c6179657220686173206e6f20726f6c65000000000000000000000000000060448201526064016103fd565b600060018360405161089991906110a1565b90815260408051602092819003830181206001600160a01b0386166000908152935290822054600160a01b900460ff1692506002906108d99086906110a1565b908152602001604051809103902060008360048111156108fb576108fb610f51565b600481111561090c5761090c610f51565b815260200190815260200160002060006101000a8154816001600160a01b0302191690836001600160a01b03160217905550600060018460405161095091906110a1565b90815260408051602092819003830190206001600160a01b03861660009081529252902080547fffffffffffffffffffffff00ffffffffffffffffffffffffffffffffffffffff16600160a01b8360048111156109af576109af610f51565b021790555060006001846040516109c691906110a1565b90815260408051602092819003830181206001600160a01b038716600090815293529120600201805460ff1916921515929092179091557f819e1c472958b4491e3c4703a224bc62b61e06924eb68e9f104401ed758d652090610792908590859085906110e4565b3360009081526020819052604090206003015460ff1615610a915760405162461bcd60e51b815260206004820152601960248201527f506c6179657220616c726561647920726567697374657265640000000000000060448201526064016103fd565b604080516080810182523380825260208083018581526000848601819052600160608601819052938152918290529390208251815473ffffffffffffffffffffffffffffffffffffffff19166001600160a01b03909116178155925191929190820190610afe908261119e565b5060408281015160028301556060909201516003909101805460ff1916911515919091179055517fe04d23b73ae3d3b27074da9719b5a4cd521395aaf86bfe7e374933ecb567731a90610b54903390849061125e565b60405180910390a150565b6000600283604051610b7191906110a1565b90815260200160405180910390206000836004811115610b9357610b93610f51565b6004811115610ba457610ba4610f51565b81526020810191909152604001600020546001600160a01b03169392505050565b6001600160a01b0381166000908152602081905260408120600281015460038201546001830180546060959485949093909160ff909116908390610c0890611115565b80601f0160208091040260200160405190810160405280929190818152602001828054610c3490611115565b8015610c815780601f10610c5657610100808354040283529160200191610c81565b820191906000526020600020905b815481529060010190602001808311610c6457829003601f168201915b50505050509250935093509350509193909250565b600060208190529081526040902080546001820180546001600160a01b039092169291610cc290611115565b80601f0160208091040260200160405190810160405280929190818152602001828054610cee90611115565b8015610d3b5780601f10610d1057610100808354040283529160200191610d3b565b820191906000526020600020905b815481529060010190602001808311610d1e57829003601f168201915b50505050600283015460039093015491929160ff16905084565b634e487b7160e01b600052604160045260246000fd5b600082601f830112610d7c57600080fd5b813567ffffffffffffffff80821115610d9757610d97610d55565b604051601f8301601f19908116603f01168101908282118183101715610dbf57610dbf610d55565b81604052838152866020858801011115610dd857600080fd5b836020870160208301376000602085830101528094505050505092915050565b600060208284031215610e0a57600080fd5b813567ffffffffffffffff811115610e2157600080fd5b610e2d84828501610d6b565b949350505050565b803560058110610e4457600080fd5b919050565b60008060408385031215610e5c57600080fd5b823567ffffffffffffffff811115610e7357600080fd5b610e7f85828601610d6b565b925050610e8e60208401610e35565b90509250929050565b80356001600160a01b0381168114610e4457600080fd5b600080600060608486031215610ec357600080fd5b833567ffffffffffffffff811115610eda57600080fd5b610ee686828701610d6b565b935050610ef560208501610e97565b9150610f0360408501610e35565b90509250925092565b60008060408385031215610f1f57600080fd5b823567ffffffffffffffff811115610f3657600080fd5b610f4285828601610d6b565b925050610e8e60208401610e97565b634e487b7160e01b600052602160045260246000fd5b60058110610f8557634e487b7160e01b600052602160045260246000fd5b9052565b602081016103908284610f67565b600060208284031215610fa957600080fd5b610fb282610e97565b9392505050565b60005b83811015610fd4578181015183820152602001610fbc565b50506000910152565b60008151808452610ff5816020860160208601610fb9565b601f01601f19169290920160200192915050565b60608152600061101c6060830186610fdd565b602083019490945250901515604090910152919050565b6001600160a01b0385168152608081016110506020830186610f67565b836040830152821515606083015295945050505050565b6001600160a01b03851681526080602082015260006110896080830186610fdd565b60408301949094525090151560609091015292915050565b600082516110b3818460208701610fb9565b9190910192915050565b6000600182016110dd57634e487b7160e01b600052601160045260246000fd5b5060010190565b6060815260006110f76060830186610fdd565b90506001600160a01b0384166020830152610e2d6040830184610f67565b600181811c9082168061112957607f821691505b60208210810361114957634e487b7160e01b600052602260045260246000fd5b50919050565b601f82111561119957600081815260208120601f850160051c810160208610156111765750805b601f850160051c820191505b8181101561119557828155600101611182565b5050505b505050565b815167ffffffffffffffff8111156111b8576111b8610d55565b6111cc816111c68454611115565b8461114f565b602080601f83116001811461120157600084156111e95750858301515b600019600386901b1c1916600185901b178555611195565b600085815260208120601f198616915b8281101561123057888601518255948401946001909101908401611211565b508582101561124e5787850151600019600388901b60f8161c191681555b5050505050600190811b01905550565b6001600160a01b0383168152604060208201526000610e2d6040830184610fdd56fea2646970667358221220227e7054c9a717d555796f648dd8e96063cd5ff51976ee6feed5e1da63aace7064736f6c63430008110033",
  "linkReferences": {},
  "deployedLinkReferences": {}
}